:1000000002005611471150308BFD90E000E0F518CA
:1000100075F06484FD7F011138E51875F06484E59E
:10002000F075F00A84FD7F021138E51875F00A8436
:10003000ADF07F03113880CBEFC43354E0F5A074EA
:10004000082DF8E6F59022D28AD2BAD2AAD2AF22EF
:1000500090E000E4F022787FE4F6D8FD7581180284
:10006000009D020003E493A3F8E493A34003F68009
:1000700001F208DFF48029E493A3F85407240CC8A4
:10008000C333C4540F4420C8834004F4568001464F
:10009000F6DFE4800B01020408102040809000E2AB
:1000A000E47E019360BCA3FF543F30E509541FFE7A
:1000B000E493A360010ECF54C025E060A840B8E4EB
:1000C00093A3FAE493A3F8E493A3C8C582C8CAC56E
:1000D00083CAF0A3C8C582C8CAC583CADFE9DEE700
:1000E00080BE1008C0F9A4B0999282F880908883ED
:0800F000C6A1868E0118000074
:00000001FF
