:10000000020003787FE4F6D8FD75810702004A02FA
:10001000008FE493A3F8E493A34003F68001F20871
:10002000DFF48029E493A3F85407240CC8C333C435
:10003000540F4420C8834004F456800146F6DFE4A0
:10004000800B0102040810204080900139E47E01F9
:100050009360BCA3FF543F30E509541FFEE493A313
:1000600060010ECF54C025E060A840B8E493A3FA25
:10007000E493A3F8E493A3C8C582C8CAC583CAF0B1
:10008000A3C8C582C8CAC583CADFE9DEE780BE90BF
:1000900000177417F0A3742EF02417A3F0E4A3F054
:1000A0007F0F120157900017E075F00A8490001A34
:1000B000F0900001120115900017E075F00A84908D
:1000C000001AE5F0F0900002120115900018E0759A
:1000D000F00A8490001AF0900003120115900018A5
:1000E000E075F00A8490001AE5F0F0900004120127
:1000F00015900019E075F00A84A3F0900005120134
:1001000015900019E075F00A84A3E5F0F090000660
:100110001201158090E0902103F090001AE024076E
:10012000F582E43400F583E0902102F07F017E8EB9
:100130007D02DDFEDEFADFF622500007C0F9A4B032
:10014000999282F880908883C6A1868E470000FF2E
:0D015000DFEFF7FBFDFE00902100EFF02235
:00000001FF
