:10000000020003787FE4F6D8FD75811902004A02E8
:10001000008FE493A3F8E493A34003F68001F20871
:10002000DFF48029E493A3F85407240CC8C333C435
:10003000540F4420C8834004F456800146F6DFE4A0
:10004000800B01020408102040809000AEE47E0185
:100050009360BCA3FF543F30E509541FFEE493A313
:1000600060010ECF54C025E060A840B8E493A3FA25
:10007000E493A3F8E493A3C8C582C8CAC583CAF0B1
:10008000A3C8C582C8CAC583CADFE9DEE780BEE46B
:10009000F518F5191200E01200E9901000E518F0CB
:1000A000051890E000E0F519FF1200C180E9100882
:1000B000C0F9A4B0999282F880908883C6A1868EF8
:1000C000007E01AD07EDD3940040031D80F7DEF301
:1000D00022EFC43354E0F5A074082DF8E6F5902221
:0F00E000D28AD2BAD2AAD2AF2290E000E4F022A4
:00000001FF
