:0A0000000200E111DA7590FF80FEA6
:0F000B00011D758C3C758AB0D28C22758BFE223C
:10001B000163C0E0C0F0C083C082C0D075D000C007
:10002B0000C001C002C003C004C005C006C0071158
:10003B000D0509E509B41405750900119DD007D00C
:10004B0006D005D004D003D002D001D000D0D0D040
:10005B0082D083D0F0D0E032C0E0C0F0C083C08249
:10006B00C0D075D000C000C001C002C003C004C026
:10007B0005C006C007110DD007D006D005D004D09F
:10008B0003D002D001D000D0D0D082D083D0F0D01A
:10009B00E032850890E508B4FF077508FE11DE0114
:1000AB0016E50825E0F50843080122438901758C04
:1000BB003C758AB0D2A9D2AFD2B9C28C2243896027
:1000CB00758DFE758BFED2ABD2AFC2BBD28E221119
:1000DB00B601C8C28C22787FE4F6D8FD758109027F
:1000EB000128020003E493A3F8E493A34003F680F2
:1000FB0001F208DFF48029E493A3F85407240CC819
:10010B00C333C4540F4420C8834004F456800146C3
:10011B00F6DFE4800B010204081020408090016D93
:10012B00E47E019360BCA3FF543F30E509541FFEEE
:10013B00E493A360010ECF54C025E060A840B8E45F
:10014B0093A3FAE493A3F8E493A3C8C582C8CAC5E2
:10015B0083CAF0A3C8C582C8CAC583CADFE9DEE774
:09016B0080BE0108FE010900003C
:00000001FF
