:10000000020003787FE4F6D8FD75812702004A02DA
:10001000024DE493A3F8E493A34003F68001F208B1
:10002000DFF48029E493A3F85407240CC8C333C435
:10003000540F4420C8834004F456800146F6DFE4A0
:10004000800B010204081020408090021EE47E0113
:100050009360BCA3FF543F30E509541FFEE493A313
:1000600060010ECF54C025E060A840B8E493A3FA25
:10007000E493A3F8E493A3C8C582C8CAC583CAF0B1
:10008000A3C8C582C8CAC583CADFE9DEE780BEC28D
:10009000D5EC30E709B2D5E4C39DFDE49CFCEE301D
:1000A000E715B2D5E4C39FFFE49EFE1200C5C3E48A
:1000B0009DFDE49CFC80031200C530D507C3E49F7E
:1000C000FFE49EFE22BC000BBE0029EF8DF084FFF2
:1000D000ADF022E4CCF875F008EF2FFFEE33FEEC24
:1000E00033FCEE9DEC984005FCEE9DFE0FD5F0E94B
:1000F000E4CEFD22EDF8F5F0EE8420D21CFEADF04A
:1001000075F008EF2FFFED33FD4007985006D5F04E
:10011000F222C398FD0FD5F0EA22D3E5279464E5D7
:100120002664809480400FAE26AF277C007D641249
:10013000008F8E088F09AE26AF277C007D0A120043
:100140008F8C0A8D0BC3E527950BFFE526950AFEDC
:100150007C007D0A12008F7C007D0A12008FAA04A9
:10016000AB05EBC4F8540FC868FBEAC454F048FA76
:10017000EB250BF50BEA350AF50A22E4FFFEFDFC40
:10018000EF25E02412F8E6FA08E62DFDEA3CFC0F24
:10019000BF00010EEF640A4E70E6C3ED9511FFEC4F
:1001A0009510FEC3EF950FFFEE950EFE7C007D08C7
:1001B00012008F8E0C8F0D22E4FFFE851210851326
:1001C000110FEF25E02412F8E6FC08E6FDD39511A7
:1001D000E5106480F8EC64809840048C108D110F59
:1001E000BF00010EEF640A4E70D822E4FFFE8512B4
:1001F0000E85130F0FEF25E02412F8E6FC08E6FD4C
:10020000C3950FE50E6480F8EC64809850048C0E62
:100210008D0F0FBF00010EEF640A4E70D82214122A
:100220000010003500A300F7002D009D00E8000439
:10023000008700D002100000020E0000022600001D
:1002400002080000020A0000020C0000001201B8BF
:100250001201EBE511250FF527E510350EF52612F5
:05026000017B02011A00
:00000001FF
