:10000000020003787FE4F6D8FD75811702004A02EA
:1000100001D0E493A3F8E493A34003F68001F2082F
:10002000DFF48029E493A3F85407240CC8C333C435
:10003000540F4420C8834004F456800146F6DFE4A0
:10004000800B0102040810204080900181E47E01B1
:100050009360BCA3FF543F30E509541FFEE493A313
:1000600060010ECF54C025E060A840B8E493A3FA25
:10007000E493A3F8E493A3C8C582C8CAC583CAF0B1
:10008000A3C8C582C8CAC583CADFE9DEE780BEBC93
:10009000000BBE0029EF8DF084FFADF022E4CCF818
:1000A00075F008EF2FFFEE33FEEC33FCEE9DEC987D
:1000B0004005FCEE9DFE0FD5F0E9E4CEFD22EDF803
:1000C000F5F0EE8420D21CFEADF075F008EF2FFFA6
:1000D000ED33FD4007985006D5F0F222C398FD0F8E
:1000E000D5F0EA22C2D5EC30E709B2D5E4C39DFDD4
:1000F000E49CFCEE30E715B2D5E4C39FFFE49EFE1E
:1001000012008FC3E49DFDE49CFC800312008F303D
:10011000D507C3E49FFFE49EFE22E517D394644015
:1001200008E51775F06484F508E51775F00A84850D
:10013000F009C3E5179509FFE49400FE7C007D0AF1
:1001400012008FEF75F00A84AFF0EFC454F0250968
:10015000F50922E4FFFDFC740D2FF8E62DFDE43CCB
:10016000FC0FBF0AF2C3ED950CFFEC9400FEC3EF49
:10017000950BFFEE9400FE7C007D081200E48F0AD0
:10018000220A0D1035A3F72D9DE80487D0010C003D
:10019000010B00011700010800010900010A00001D
:1001A000E4FF850D0C0F740D2FF8E6FED3950C407F
:1001B000028E0C0FBF0AEF22E4FF850D0B0F740DAA
:1001C0002FF8E6FEC3950B50028E0B0FBF0AEF22ED
:1001D0001201A01201B8E50C250BF517120153020C
:0201E000011A02
:00000001FF
