:100000000200FE751F1775202EE51F2520F52175AE
:1000100022007F0F11F5E51F75F00A84F52290216B
:1000200003E509F0AF22740F2FF8E6FF902102EFED
:10003000F011CAE51F75F00A8485F022902103E5CE
:100040000AF0AF22740F2FF8E6FF902102EFF011B3
:10005000CAE52075F00A84F522902103E50BF0AF84
:1000600022740F2FF8E6FF902102EFF011CAE5206D
:1000700075F00A8485F022902103E50CF0AF22741C
:100080000F2FF8E6FF902102EFF011CAE52175F07D
:100090000A84F522902103E50DF0AF22740F2FF8AA
:1000A000E6FF902102EFF011CAE52175F00A848580
:1000B000F022902103E50EF0AF22740F2FF8E6FF37
:1000C000902102EFF011CA011622752501E525D312
:1000D0009400402075248EE524D3940040127523AB
:1000E00002E523D394004004152380F5152480E70E
:1000F000152580D9228F26902100E526F022787FD1
:10010000E4F6D8FD758126020145020003E493A3BD
:10011000F8E493A34003F68001F208DFF48029E4B9
:1001200093A3F85407240CC8C333C4540F4420C805
:10013000834004F456800146F6DFE4800B0102049C
:10014000081020408090018AE47E019360BCA3FFE8
:10015000543F30E509541FFEE493A360010ECF54D1
:10016000C025E060A840B8E493A3FAE493A3F8E4C0
:1001700093A3C8C582C8CAC583CAF0A3C8C582C82C
:10018000CAC583CADFE9DEE780BE100FC0F9A4B09C
:10019000999282F880908883C6A1868E0708FFDF37
:0601A000EFF7FBFDFE007D
:00000001FF
