:1000000002003C112D7D017F01111E1136308BFD48
:1000100090E000E0F5187D017F02111E80E5EFC43D
:100020003354E0F5A074082DF8E6F59022D28AD278
:10003000BAD2AAD2AF2290E000E4F022787FE4F6B0
:10004000D8FD758118020083020003E493A3F8E44D
:1000500093A34003F68001F208DFF48029E493A320
:10006000F85407240CC8C333C4540F4420C8834039
:1000700004F456800146F6DFE4800B010204081008
:100080002040809000C8E47E019360BCA3FF543FF1
:1000900030E509541FFEE493A360010ECF54C02540
:1000A000E060A840B8E493A3FAE493A3F8E493A330
:1000B000C8C582C8CAC583CAF0A3C8C582C8CAC594
:1000C00083CADFE9DEE780BE1008C0F9A4B09992C8
:0E00D00082F880908883C6A1868E01180000F9
:00000001FF
