:10000000020006020092787FE4F6D8FD75810702AF
:10001000004D0200BAE493A3F8E493A34003F680F2
:1000200001F208DFF48029E493A3F85407240CC8F4
:10003000C333C4540F4420C8834004F4568001469F
:10004000F6DFE4800B01020408102040809000BF1E
:10005000E47E019360BCA3FF543F30E509541FFECA
:10006000E493A360010ECF54C025E060A840B8E43B
:1000700093A3FAE493A3F8E493A3C8C582C8CAC5BE
:1000800083CAF0A3C8C582C8CAC583CADFE9DEE750
:1000900080BEC0E0C083C082C0D0900000E004F009
:1000A000E0B40304E4F0B290D0D0D082D083D0E0AA
:1000B00032D288D2B8D2A8D2AF221200B180FE418B
:0400C000000000003C
:00000001FF
